:040000000200C63202
:01000B0032C2
:0100130032BA
:01001B0032B2
:0100230032AA
:03002B0002028648
:030033000201B90E
:01003B003292
:03004300023F0079
:01004B003282
:03005300023F0069
:200058000000E2FBEAF2802C0000E0FBEAF08024E6B50202EBF62200E2B50202EBF222008E
:20007800E0B50202EBF02230F6E0A88220F5D3EAC6F582228B822230F6E6A88220F5D9809E
:01009800CF98
:1C011F00750800750900750A02750B00750CF4750D01750EF4750F01C200C2014F
:03014D0002009914
:0300990002084515
:20015000E582FF30E00543B108800353B1F7EF30E40543B101800353B1FE75820122AF82CD
:200170007401B5180280157402B5180280127405B51802800F740AB51812800C7E488010A9
:200190007E24800C7E0080087E6C800475820022EF60047FE080027F1CEFF4FDE5A0520509
:2001B000EF5E4DF5A075820122C2DC32C0E0C082C083D2005391EF90E65D7401F0D083D0F1
:2001D00082D0E032C021C0E0C0F0C082C083C007C006C005C004C003C002C001C000C0D049
:2001F00075D0007582001211245391EF90E65D7410F0D0D0D000D001D002D003D004D005C3
:20021000D006D007D083D082D0F0D0E0D02102009CC021C0E0C0F0C082C083C007C006C07A
:2002300005C004C003C002C001C000C0D075D0007582011211245391EF90E65D7420F0D0D1
:20025000D0D000D001D002D003D004D005D006D007D083D082D0F0D0E0D02102009CC0E0DE
:20027000C082C083D2015391EF90E65D7408F0D083D082D0E032C0E0C0D0B287E50E450FCD
:200290006019150E74FFB50E02150FE50E450F700A850C0E850D0FB2A0D2A1C2CFD0D0D08F
:2002B000E032850A18751900905DC01214D3AE82AF83AC097D00C3EC9EED64808FF063F0BD
:2002D0008095F0400990E640E053E07FF02290E640E043E080F02285820A7401B50A028054
:2002F000057402B50A18AF0A74072FF50B90E618F090E61AE50BF01202B275820122758274
:20031000002290E6F574FFF000000000E5BBFF30E7FA90E6047480F00000000090E618E45D
:20033000F00000000090E61AE4F00000000090E6047402F00000000090E6047406F0000095
:20035000000090E618E50BF00000000090E61AE50BF00000000090E604E4F02290E6F57460
:20037000FFF000000000E50870047F0680027F0290E648EFF0221203127EE87F031EBEFFEC
:20039000011FEE4F70F7E5BBFF30E7FA0000000090E6D07428F00000000090E6D1E4F0E507
:2003B0000870047F0680027F048FBB22AF8290E680E030E7067D1C7E3D80047DA67E3DEFF2
:2003D00075F010A42416FBE435F0FCEB2DFDEC3EFEEFF508702790E612E4F090E61474E0C0
:2003F000F090E6E27401F08D828E83E49390E625F08D828E83A3E49390E624F02290E612B0
:2004100074D8F090E614E4F090E6D204F08D828E83E49390E621F00DBD00010E8D828E83DF
:20043000E493FF90E62074075FF08D828E83E493C423541F90E64004F00202B2AF827E00D6
:20045000EE75F005A424DFFC741835F0FD8C828D83E493B5070280080EBE19E47582002226
:200470008C828D83A3A3A3A3E49390E601F08C828D83A3E493FDA3E493FEA3E493FF75AF5A
:2004900007759DE4759E007C208C031CEB60168D828E838FF01214B6FBA3AD82AE8390E6A5
:2004B0007CEBF080E47F608F061FEE600790E67CE4F080F375820122E582FF70077B64FC7E
:2004D000FDFE805CEF249B401D8F18751900751A00751B009003E8E4F5F0121250AB82AC45
:2004F00083ADF0FE803ABF670A7B207C007D007E00802DEF243740168F02EA249C75F00ADB
:20051000A4F9AAF089038A047D007E008012EF243875F064A4FFAAF08F038A047D007E0081
:20053000C3EB9420EC9400ED9400EE64809480500475820022751802E4F519F51AF51B8BCA
:20055000828C838DF0EEC006C005C004C0031212EEA882A983D003D004D005D006880C89A6
:200570000D8B828C838DF0EE120DAAAC82AD83AEF0FFC004C005C006C00790240075F0F4F0
:2005900074C91213F3AC82AD83AEF0FFE58124FCF5818C828D838EF0EF120DD7AC82AD8320
:2005B0008CCA8DCB75820122AD18AE19AF1A8D828E838FF0E50812123275820122E582703B
:2005D000068510821203BC75820122758200227582012290E6BBE0FE7F0090E6BAE07C00B6
:2005F0004207EC420690E6BFE0FC7D0090E6BEE07A004205EA420490E6A0E020E1F990E675
:20061000B8E0FBBB4002806FBBC00280030206E0ED4C70030206E4C374409DE49C50047B68
:200630004080028D0390E6A0E020E1F98B457546007547407548E77549008F438E447582E4
:2006500051C007C006C005C004C003120CE1D003D004D005D006D00790E68AE4F000000064
:200670000090E68BEBF07A00EDC39BFDEC9AFCEB2FFFEA3EFE8099ED4C605990E68BE4F02B
:2006900090E6A0E020E1F990E68BE0FB8B38753900753A40753BE7753C008F368E37758255
:2006B00051C007C006C005C004C003120C4CE582D003D004D005D006D0077003F582227A80
:2006D00000EB2FFFEA3EFEEDC39BFDEC9AFC80A7758200227582012275820022AF82C00796
:2006F00012036CD007C2A0D2A1850C0E850D0FBFE0004015EF2419401090E68AE4F090E6C3
:200710008BF090E6A0E020E1F9BFA2028023BFE0028021BFE1028028BFE202802FBFE302D6
:200730008033BFE4028046BFE502804ABFE659804E0205E390E740E0F51875820002016E59
:2007500090E740E0F51875820102016E90E740E0F58202044C90E740E0FFBF010CD2A0C286
:20077000A1E4F50EF50F1203867582012290E740E0F5820202E790E740E0F582020150903E
:20079000E740E0F5820204C87582002290E613E4F090E615F090E6C2F090E6C37480F09037
:2007B000E6C0E4F090E6F4F012036C75180175820012016E75180175820112016E758201CF
:2007D00012044C7582021202E77582000203BC74022410FEE4343EFF7D068D041DEC60542D
:2007F000ED2407F582E434E5F583E0FC740F5C90195C938E828F83F074012EFBE43FFC8B38
:20081000828C83E4F00BBB00010CED2407F582E434E5F583E0C4540F90195C938B828C83D1
:20083000F00BBB00010C8B828C83E4F0042BFEE43CFF80A62290E600E054E74410F0120773
:20085000DF12079CD2E890E668E043E008F090E65CE043E001F090E65CE043E010F090E650
:200870005CE043E020F090E65CE043E008F0D2DDD2AF75CA3075CBF875C800D2ADD2CA906D
:20089000E680E043E00AF09005DC12134D90E680E053E0F7F090E6727404F090E671E4F007
:2008B00090E670F075B109F5A0F58075B6FF75B4FF75B2FFC2A0D2A11000028003120E32E5
:2008D00010010280F390E682E043E0C0F090E6817401F043870100000000000000E5137048
:2008F0001E90E682E030E60890E682E0FF20E0D590E682E030E70890E682E0FF20E1C69003
:20091000E682E030E60790E682E020E01090E682E0FF30E7A390E682E0FF30E19B900005D1
:1C09300012134D90E680E043E001F090000F12134D90E680E053E0FEF00208C875
:2015BF000F0E000000000000020001000000000050555500000000000000000000000000F2
:2015DF000101000000000000020001000000000050555500000000000000000000000000ED
:2015FF00FAFAFAFAFAF90000020000000000010050555555555555000000000000000000A0
:20161F00FAFAFAFAFAF900000200000000000100505555555555550000000000000000007F
:20163F00FAFAF900000000000200000100000000505555550000000000000000000000004C
:20165F00C8C8C70000000000020000010000000050555555000000000000000000000000C2
:20167F00FAFAF900000000000200000100000000505555550000000000000000000000000C
:20169F00969500000000000002000100000000005055550000000000000000000000000003
:2016BF00BBBB00000000000002000100000000005055550000000000000000000000000098
:2016DF000201000000000000020001000000000050555500000000000000000000000000EB
:2016FF004B4A00000000000002000100000000005055550000000000000000000000000039
:20171F00252500000000000002000100000000005055550000000000000000000000000063
:20173F000100000000000000020100000000000050550000000000000000000000000000E1
:20175F001E1D00000000000002000100000000005055550000000000000000000000000032
:20177F0001010000000000000200010000000000505555000000000000000000000000004B
:20179F002525000000000000020001000000000050555500000000000000000000000000E3
:2017BF000707000000000000020001000000000050555500000000000000000000000000FF
:2017DF00010000000000000002010000000000005055000000000000000000000000000041
:2017FF000504000000000000020001000000000050555500000000000000000000000000C4
:20181F00800000000000000003000000000000000000000000000000000000000000000026
:20183F00060500000000000002000100000000005055550000000000000000000000000081
:20185F008000000000000000030000000000000000000000000000000000000000000000E6
:20187F00030200000000000002000100000000005055550000000000000000000000000047
:20189F00020200000000000002000100000000005055550000000000000000000000000028
:2018BF00030200000000000002000100000000005055550000000000000000000000000007
:2018DF00305F1880EA1E1F1880AA18DF1780CA107F1780CA0F3F17808A0CDF1680CA0ADF6E
:2018FF0015808A08BF1880CA069F18808A057F18808A043F1880CA03FF17808A02BF1780F4
:20191F008A01BF15808AA49F17808A965F17808A8C1F17808A78FF16808A71BF1680CA6E64
:20193F009F16808A6A7F1680CA695F16808A683F16808A671F1680CA66FF15808A303132D4
:0D195F00333435363738394142434445466C
:203D000012010002FFFFFF40B50422601002010203010A0600020000004001000902890016
:203D200001010080FA0904000001FF000000070586020002000904000101FF000100070549
:203D400082010014010904000201FF00010007058201000C010904000301FF000100070502
:203D600082010004010904000401FF000100070582010004020904000501FF0001000705F5
:203D800082010004030904000601FF000100070582010004040904000701FF0001000705CD
:053DA000820100020495
:203DA6000902390002010080FA0904000001FF000000070586024000000904000101FF004D
:193DC600010007058201FF03010904000201FF00010007058201000201AF
:203DE0000403090416034F00700065006E00480061006E00740065006B00160344005300F9
:203E00004F002D003600300032003200420045001A03300030003000300030003000300068
:0C3E2000300030003000300030000000A6
:20094C0085822CE5272522FDE5283523FE752D02903C00E4F0903C00E060047582002290A8
:20096C00E678E0FB7A0043038090E678EBF0E030E21090000AC006C00512134DD005D006E5
:20098C0080D3E52C25E0FB90E679F090E678E020E006903C00E060F3903C00E0600475822E
:2009AC00002290E678E020E2AC90E678E020E14090E678E0FB43034090E678EBF090E67878
:2009CC00E030E606903C00E060F3903C00E0600475820022E52D14FB8B2D7003F582229072
:2009EC00000AC006C00512134DD005D0060209617A007B00C3EA9DEB9E4003020A96C3EA73
:200A0C009522EB95235016EA2524F8EB3525F9AC26888289838CF01214B6FC801DEAC39586
:200A2C0022F8EB9523F9E82529F8E9352AF9AF2B888289838FF01214B6FC90E679ECF00A69
:200A4C00BA00010B90E678E020E006903C00E060F3903C00E060047582002290E678E030CA
:200A6C00E20302096190E678E020E18890E678E0FF43074090E678EFF090E678E030E606B4
:200A8C00903C00E060F37582002290E678E0FF43074090E678EFF090E678E030E606903C58
:200AAC0000E060F3903C00E060047582002275820122858233903C00E4F004B52E0814B522
:200ACC002F0474018001E4FE903C00E06004758200227C007D0090E678E0FB43038090E6D8
:200AEC0078EBF0E030E20C90000AC00612134DD00680D5E53325E0FB3395E0FA430301900B
:200B0C00E679EBF090E678E020E006903C00E060F3903C00E060047582002290E678E020A5
:200B2C00E2A690E678E020E11E90E678E0FB43034090E678EBF090E678E030E606903C0066
:200B4C00E060F375820022EE600F90E678E0FB7A0043032090E678EBF090E679E0E4F53492
:200B6C00F53574012534F8E43535F9C3E8952EE9952F506C90E678E020E006903C00E0607B
:200B8C00F3903C00E060047582002290E678E030E203020AD474022534F8E43535F9E8B5BF
:200BAC002E13E9B52F0F90E678E0F8790043002090E678E8F0A834A9350534E4B5340205DD
:200BCC0035AC34AD35E82530F8E93531F9AF3290E679E0FB888289838FF0121232020B6E84
:200BEC0090E678E020E006903C00E060F3903C00E060047582002290E678E030E203020AFE
:200C0C00D490E678E0FF43074090E678EFF0EC2530FCED3531FDAF3290E679E08C828D8375
:200C2C008FF012123290E678E030E606903C00E060F3903C00E060047582002275820122A7
:200C4C0085823DE4F541F542AB36AC37C3E5419538E54295394003020CDD7A0090E678E00E
:200C6C0030E4067A018C078F3EEA04FFEA243EF98B02A702EF04FAEF243EF9AE41AF4205EF
:200C8C0041E4B541020542EE253AFEEF353BFFAD3C8E828F838DF01214B6F78A227523009C
:200CAC0075243E752500752640E4F527F528F529F52AF52B853D82C004C00312094CE582C9
:200CCC00D003D0047003F582220BBB00010C020C5875820122AF827E0090E678E030E4066B
:200CEC007E01AD448D4AEE04FDEE244AF9AE43A7068D2275230075244A752500752640E43C
:200D0C00F527F528F529F52AF52B8F82C00712094CE582D0077003F5822285452E85462FB6
:190D2C008547308548318549328F82120ABEE5827003F58222758201223C
:200D4500FB7A20E4FCFDFEFFE5822582F582E58333F583E5F033F5F0EB33FB4017DAE980E7
:200D650042E5822582F582E58333F583E5F033F5F0EB33FBEC33FCED33FDEE33FEEF33FF16
:200D8500EC9518ED9519EE951AEF951B4013EC9518FCED9519FDEE951AFEEF951BFF438260
:050DA50001DABEEB22A3
:0600F500E478FFF6D8FDDF
:200DAA00FCABF0AA83A982749EF582C2D1EC30E716D2D1E9F42401F9EAF43400FAEBF43448
:0D0DCA0000FBECF43400FC1215840213A3AE
:200DD700121220C3749E95824039790012154130D126E9F42401F582EAF43400F583EBF469
:200DF7003400F5F0ECF43400700AE582458345F0700122E430E70F22EC20E71489828A83F3
:1B0E17008BF02230D10AE4F582F583F5F074802274FFF582F583F5F0747F22EE
:12013B007512007513007514A675153D75161C75173D3D
:200E320090E6B9E0FF24F45003020F32EF240A83F582EF241083F583E4736479328E323257
:200E5200A332B3CAE1140E0E0F0E0F0F0E0F0E0E0E0F120FA5E5826003020F4790E6A0E0AE
:200E720043E001F0020F47121031E5826003020F4790E6A0E043E001F0020F471210A0E576
:200E9200826003020F4790E6A0E043E001F0020F471206E8E5826003020F4712114F020FFC
:200EB200471205DBAF8290E740EFF090E68AE4F090E68B04F0020F4790E6BAE0F582120561
:200ED200DFE582707090E6A0E043E001F0806690E6BCE0FF751811751900751A408F8212BB
:200EF20005B8E582700A90E6A0E043E001F0804590E740E511F090E68AE4F090E68B04F00D
:200F1200803390E6BCE0FF90E6BAE0F5108F821205CDE582701F90E6A0E043E001F080155C
:200F320090E6B9E0F5821206ECE582700890E6A0E043E001F090E6A0E043E080F022AF8250
:200F5200747F5FFE24F74047EE240A83F582EE240D83F583E4737A7E91A195A199A19D0FC0
:200F72000F0F0F0F0F0F0F0F90E6A022EF30E7067EA27FE680047EA17FE68E828F83229042
:200F9200E6A32290E6A42290E6A52290E6A6229000002290E6B8E0FFBF8002801FBF8102FC
:200FB2008005BF8272803490E740E4F090E741F090E68AF090E68B7402F0805FE51325E0CD
:200FD200FFE512420790E740EFF090E741E4F090E68AF090E68B7402F0804090E6BCE0F580
:200FF20082120F50AE82AF838E048F05EE4F7003F582228C828D83E030E0047F0180027F88
:201012000090E740EFF090E741E4F090E68AF090E68B7402F08004758200227582012290FE
:20103200E6B8E0FF6005BF0258801B90E6BAE0FFBF0105751300805290E6BAE0FFBF060204
:2010520080487582002290E6BAE0703190E6BCE0F582120F50AE82AF83E0FD5305FE8E824D
:201072008F83EDF090E6BCE0FF30E70343071053071F90E683EFF074204FF0800D75820042
:201092002290E6B9E0F5820206EC7582012290E6B8E0FF6005BF026D802590E6BAE0FFBF75
:2010B2000202806A90E6BAE0FFBF0105751301805D90E6BAE0FFBF060280537582002290A4
:2010D200E6BAE0703C90E6BCE0F582120F50AE82AF83EE4F7003F582228E828F83E0FD43EB
:2010F20005018E828F83EDF090E6BCE0FF30E70343071053071F90E683EFF074204FF080B0
:201112000D7582002290E6B9E0F5820206EC75820122AF82D20210AF02C202EF600E751493
:201132001C75153D7516A675173D800C7514A675153D75161C75173DA20292AF2290E6BB96
:20115200E0FFBF01028019BF02028024BF0302802CBF06030211FABF070302120A02121785
:201172007E007F3D90E6B3EFF090E6B47400F02290E6B3E515F090E6B4E514F0227DE07E48
:201192003D7F8090E6BAE0FC7B00ECB50302803C0B8D008E018F02888289838AF01214B6F4
:2011B2002DFDE43EFE74012DF8E43EF98F02888289838AF01214B6F8B8030280067D007EEB
:2011D200007F00ED4E6005C3EC9B50BEED4E600F8D038E0490E6B3ECF090E6B4EDF02290FC
:2011F200E6A0E043E001F0227E127F3D90E6B3EFF090E6B47412F02290E6B3E517F090E6A0
:0E121200B4E516F02290E6A0E043E001F022E1
:2000D3007900E94400601B7A0090196C780175923CE493F2A308B800020592D9F4DAF2752E
:0200F30092FF7A
:20009C00C000A88118C0D0B6001B18B658004015B67F005010C0E0E65407B406005004E6FD
:0A00BC0054F8F6D0E0D0D0D00032A6
:12122000AA82AB83A2F73392D1F5826002D2F7ACF022D3
:1B12320020F71130F6138883A88220F509F6A8837583002280FEF280F5F022BB
:203F00000201BC000215B90002150E0002026E000201D4000202210002150B000213410007
:203F2000021343000213440002134500021348000215B8000215BA0002124D0002124F00B5
:203F400002151000021341000214D20002150C0002150D0002150F00021511000215400010
:203F60000213F20002134100021341000213410002134200021346000213490002134B00C8
:203F80000213470002134A0002134C000213A2000212BE000212E9000212EB000212ED007F
:183FA0000212BF000212EA000212EC000213400002124E000215B700B3
:01124D00326E
:01124E00326D
:01124F00326C
:20125000AAF0FBE5828518F0A4FCADF0E5838518F0A42DFDE435F0FEE5828519F0A42DFD2B
:20127000E5F03EFEE433FFEA8518F0A42EFEE5F03FFFE5838519F0A42EFEE5F03FFFE5829D
:20129000851AF0A42EFEE5F03FFFEB8518F0A42FFFEA8519F0A42FFFE583851AF0A42FFF6F
:0E12B000E582851BF0A42F8EF08D838C8222A8
:0112BE0032FD
:0112BF0032FC
:2000FB007800E84400600A790075923CE4F309D8FC7801E84400600C7901903C00E4F0A399
:04011B00D8FCD9FA39
:2012C0007A10E4FBFCE58225E0F582E58333F583EB33FBEC33FCEB9518F5F0EC9519400622
:0912E000FCABF0438201DADD22CF
:0112E90032D2
:0112EA0032D1
:0112EB0032D0
:0112EC0032CF
:0112ED0032CE
:2012EE00FBC2D530E715D2D5E4C39582F582E49583F583E495F0F5F0E49BFBE51B30E717DC
:20130E00B2D5E4C39518F518E49519F519E4951AF51AE4951BF51BEB120D4530D513FBE4AB
:12132E00C39582F582E49583F583E495F0F5F0E49B22F9
:01134000327A
:011341003279
:011342003278
:011343003277
:011344003276
:011345003275
:011346003274
:011347003273
:011348003272
:011349003271
:01134A003270
:01134B00326F
:01134C00326E
:20134D00AE82AF8390E600E05418C423541F70057CB1FD801C90E600E05418C423541FFBB0
:20136D00BB01067A617B0180047AC27B028A048B058C188D19151874FFB518021519E51808
:15138D00451970F1EE24FFFAEF34FFFB8A068B07EA4B70DD229E
:0113A2003218
:2013A300B98003EA13B34010EA2401FAE43BFBE43CFC50047C800582BC000EBB000BBA008E
:2013C30008E4F5F0F583F58222A2D1E582138CF092F78B838A8222E4F583F58275F080F44E
:0F13E300A2D11322E4F583F58275F0C0747F2246
:0113F20032C8
:2013F30012151230D502B2D1BF0009BC00030213E70213DABC00030213C4E583B4FF0BE502
:2014130082B4FF030213E70213C4E582B4FF030213DAC395835007247F400B0213C4248003
:201433001450030213DAF582C3ED9AEE9BEF9C40111582C3EA33F9EB33FAEC33FBE433FC68
:201453008005E4CCCBCAF9C08275F019C3E99DEA9EEB9FEC9400D5F002802D400EE99DF9DA
:20147300EA9EFAEB9FFBEC9400FCC3B3E833F8E58233F582E58333F583C3E933F9EA33FA3A
:20149300EB33FBEC33FC80C4B3E4F938FAE43582FBE43583FCD082500405827C80121584FD
:0314B3000213BB66
:0D00C60075814B1215BBE5826003020099A5
:1C14B60020F71430F6148883A88220F507E6A88375830022E280F7E49322E02245
:0114D20032E7
:2014D300C2D5E58330E70DD2D5E4C39582F582E49583F583E51930E70DB2D5E4C39518F594
:1814F30018E49519F5191212C030D50BE4C39582F582E49583F583226A
:01150B0032AD
:01150C0032AC
:01150D0032AB
:01150E0032AA
:01150F0032A9
:0115100032A8
:0115110032A7
:20151200AA82AB83A2F73392D1F5826002D2F7ACF0E58124F9F8E6FD08E6FE0886F008E63C
:0E153200A2F73392D5F5836002D2F7AFF02214
:011540003278
:201541006040F82582500274FFF582E824F8501ECCCBCAF9E4CC24F85014CBCAF9E4CB24B2
:20156100F8500BCAF9E4CA24F8500379002224086010F8C3EC13FCEB13FBEA13FAE913F965
:03158100D8F1227C
:201584007804EC7011E58224F8500AF582E4C9CACBFCD8EF22EC7820058220E713D5820166
:1315A40022C3E933F9EA33FAEB33FBEC33FCD8EA15822274
:0115B7003201
:0115B8003200
:0115B90032FF
:0115BA0032FE
:0415BB007582002213
:00000001FF
