:040000000200C63202
:01000B0032C2
:0100130032BA
:01001B0032B2
:0100230032AA
:03002B0002028648
:030033000201B90E
:01003B003292
:03004300023F0079
:01004B003282
:03005300023F0069
:200058000000E2FBEAF2802C0000E0FBEAF08024E6B50202EBF62200E2B50202EBF222008E
:20007800E0B50202EBF02230F6E0A88220F5D3EAC6F582228B822230F6E6A88220F5D9809E
:01009800CF98
:1C011F00750800750900750A02750B00750CF4750D01750EF4750F01C200C2014F
:03014D0002009914
:0300990002081842
:20015000E582FF30E0055380FB8003438004EF30E4055380BF800343804075820122AF8291
:200170007401B5180280157402B5180280127405B51802800F740AB51812800C7E228010CF
:200190007E11800C7E0080087E33800475820022EF60047F3080027F03EFF4FDE58052053E
:2001B000EF5E4DF58075820122C2DC32C0E0C082C083D2005391EF90E65D7401F0D083D011
:2001D00082D0E032C021C0E0C0F0C082C083C007C006C005C004C003C002C001C000C0D049
:2001F00075D0007582001210EE5391EF90E65D7410F0D0D0D000D001D002D003D004D005FA
:20021000D006D007D083D082D0F0D0E0D02102009CC021C0E0C0F0C082C083C007C006C07A
:2002300005C004C003C002C001C000C0D075D0007582011210EE5391EF90E65D7420F0D008
:20025000D0D000D001D002D003D004D005D006D007D083D082D0F0D0E0D02102009CC0E0DE
:20027000C082C083D2015391EF90E65D7408F0D083D082D0E032B287C2CF32850A1875194C
:2002900000905DC012149DAE82AF83AC097D00C3EC9EED64808FF063F08095F0400990E696
:2002B00040E053E07FF02290E640E043E080F02285820A7401B50A0280057402B50A18AF37
:2002D0000A74072FF50B90E618F090E61AE50BF012028B758201227582002290E6F574FFBC
:2002F000F000000000E5BBFF30E7FA90E6047480F00000000090E618E4F00000000090E618
:200310001AE4F00000000090E6047402F00000000090E6047406F00000000090E618E50B9D
:20033000F00000000090E61AE50BF00000000090E604E4F02290E6F574FFF000000000E52A
:200350000870047F0680027F0290E648EFF0221202EB7EE87F031EBEFF011FEE4F70F7E55F
:20037000BBFF30E7FA0000000090E6D07428F00000000090E6D1E4F0E50870047F0680024D
:200390007F048FBB22AF8290E680E030E7067D1C7E3D80047DA67E3DEF75F010A42416FB47
:2003B000E435F0FCEB2DFDEC3EFEEFF508702790E612E4F090E61474E0F090E6E27401F081
:2003D0008D828E83E49390E625F08D828E83A3E49390E624F02290E61274D8F090E614E4D3
:2003F000F090E6D204F08D828E83E49390E621F00DBD00010E8D828E83E493FF90E620742A
:20041000075FF08D828E83E493C423541F90E64004F002028BAF827E00EE75F005A424A9D4
:20043000FC741835F0FD8C828D83E493B5070280080EBE19E4758200228C828D83A3A3A33E
:20045000A3E49390E601F08C828D83A3E493FDA3E493FEA3E493FF75AF07759DE4759E0071
:200470007C208C031CEB60168D828E838FF0121480FBA3AD82AE8390E67CEBF080E47F6071
:200490008F061FEE600790E67CE4F080F375820122E582FF70077B64FCFDFE805CEF249BB3
:2004B000401D8F18751900751A00751B009003E8E4F5F012121AAB82AC83ADF0FE803ABF89
:2004D000670A7B207C007D007E00802DEF243740168F02EA249C75F00AA4F9AAF089038A45
:2004F000047D007E008012EF243875F064A4FFAAF08F038A047D007E00C3EB9420EC94000D
:20051000ED9400EE64809480500475820022751802E4F519F51AF51B8B828C838DF0EEC010
:2005300006C005C004C0031212B8A882A983D003D004D005D006880C890D8B828C838DF012
:20055000EE120D74AC82AD83AEF0FFC004C005C006C00790240075F0F474C91213BDAC829F
:20057000AD83AEF0FFE58124FCF5818C828D838EF0EF120DA1AC82AD838CCA8DCB75820153
:2005900022AD18AE19AF1A8D828E838FF0E5081211FC75820122E582700685108212039571
:2005B00075820122758200227582012290E6BBE0FE7F0090E6BAE07C004207EC420690E6D1
:2005D000BFE0FC7D0090E6BEE07A004205EA420490E6A0E020E1F990E6B8E0FBBB40028078
:2005F0006FBBC00280030206B9ED4C70030206BDC374409DE49C50047B4080028D0390E61F
:20061000A0E020E1F98B457546007547407548E77549008F438E44758251C007C006C00529
:20063000C004C003120CABD003D004D005D006D00790E68AE4F00000000090E68BEBF07A07
:2006500000EDC39BFDEC9AFCEB2FFFEA3EFE8099ED4C605990E68BE4F090E6A0E020E1F9B1
:2006700090E68BE0FB8B38753900753A40753BE7753C008F368E37758251C007C006C005C2
:20069000C004C003120C16E582D003D004D005D006D0077003F582227A00EB2FFFEA3EFE3A
:2006B000EDC39BFDEC9AFC80A7758200227582012275820022AF82C007120345D007850C33
:2006D0000E850D0FBFE0004015EF2419401090E68AE4F090E68BF090E6A0E020E1F9BFA2D5
:2006F000028023BFE0028021BFE1028028BFE202802FBFE3028033BFE4028044BFE5028081
:2007100048BFE657804C0205BC90E740E0F51875820002016E90E740E0F51875820102014B
:200730006E90E740E0F58202042590E740E0FFBF010AD283E4F50EF50F12035F75820122D4
:2007500090E740E0F5820202C090E740E0F58202015090E740E0F5820204A17582002290F8
:20077000E613E4F090E615F090E6C2F090E6C37480F090E6C0E4F090E6F4F0120345751891
:200790000175820012016E75180175820112016E7582011204257582021202C075820002D0
:2007B00003957402240CFEE4343EFF7D068D041DEC6054ED2407F582E434E5F583E0FC7473
:2007D0000F5C901926938E828F83F074012EFBE43FFC8B828C83E4F00BBB00010CED240792
:2007F000F582E434E5F583E0C4540F901926938B828C83F00BBB00010C8B828C83E4F004C1
:200810002BFEE43CFF80A62290E600E054E74410F01207B212076FD2E890E668E043E0086D
:20083000F090E65CE043E001F090E65CE043E010F090E65CE043E020F090E65CE043E0085B
:20085000F0D2DDD2AF75CA3075CBF875C800D2ADD2CA90E680E043E00AF09005DC121317C9
:2008700090E680E053E0F7F090E672E4F090E671F090E670F0F5B1F5A0F580F5B6F5B47596
:20089000B2FF1000028003120DFC10010280F390E682E043E0C0F090E6817401F04387018F
:2008B00000000000000000E513701E90E682E030E60890E682E0FF20E0D590E682E030E711
:2008D0000890E682E0FF20E1C690E682E030E60790E682E020E01090E682E0FF30E7A39064
:2008F000E682E0FF30E19B90000512131790E680E043E001F090000F12131790E680E05336
:06091000E0FEF002089277
:201589000F0E00000000000002000100000000005055550000000000000000000000000028
:2015A900010100000000000002000100000000005055550000000000000000000000000023
:2015C900FAFAFAFAFAF90000020000000000010050555555555555000000000000000000D6
:2015E900FAFAFAFAFAF90000020000000000010050555555555555000000000000000000B6
:20160900FAFAF9000000000002000001000000005055555500000000000000000000000082
:20162900C8C8C70000000000020000010000000050555555000000000000000000000000F8
:20164900FAFAF9000000000002000001000000005055555500000000000000000000000042
:20166900969500000000000002000100000000005055550000000000000000000000000039
:20168900BBBB000000000000020001000000000050555500000000000000000000000000CE
:2016A900020100000000000002000100000000005055550000000000000000000000000021
:2016C9004B4A0000000000000200010000000000505555000000000000000000000000006F
:2016E90025250000000000000200010000000000505555000000000000000000000000009A
:20170900010000000000000002010000000000005055000000000000000000000000000017
:201729001E1D00000000000002000100000000005055550000000000000000000000000068
:20174900010100000000000002000100000000005055550000000000000000000000000081
:20176900252500000000000002000100000000005055550000000000000000000000000019
:20178900070700000000000002000100000000005055550000000000000000000000000035
:2017A900010000000000000002010000000000005055000000000000000000000000000077
:2017C9000504000000000000020001000000000050555500000000000000000000000000FA
:2017E90080000000000000000300000000000000000000000000000000000000000000005D
:201809000605000000000000020001000000000050555500000000000000000000000000B7
:2018290080000000000000000300000000000000000000000000000000000000000000001C
:2018490003020000000000000200010000000000505555000000000000000000000000007D
:2018690002020000000000000200010000000000505555000000000000000000000000005E
:2018890003020000000000000200010000000000505555000000000000000000000000003D
:2018A90030291880EA1EE91780AA18A91780CA10491780CA0F0917808A0CA91680CA0AA91F
:2018C90015808A08891880CA066918808A054918808A04091880CA03C917808A028917806E
:2018E9008A018915808AA46917808A962917808A8CE916808A78C916808A71891680CA6EE0
:201909006916808A6A491680CA692916808A680916808A67E91580CA66C915808A3031324F
:0D19290033343536373839414243444546A2
:203D000012010002FFFFFF40B50421601002010203010A0600020000004001000902890017
:203D200001010080FA0904000001FF000000070586020002000904000101FF000100070549
:203D400082010014010904000201FF00010007058201000C010904000301FF000100070502
:203D600082010004010904000401FF000100070582010004020904000501FF0001000705F5
:203D800082010004030904000601FF000100070582010004040904000701FF0001000705CD
:053DA000820100020495
:203DA6000902390002010080FA0904000001FF000000070586024000000904000101FF004D
:193DC600010007058201FF03010904000201FF00010007058201000201AF
:203DE0000403090416034F00700065006E00480061006E00740065006B00120344005300FD
:203E00004F002D0036003000320031001A0330003000300030003000300030003000300090
:083E200030003000300000000A
:2009160085822CE5272522FDE5283523FE752D02903C00E4F0903C00E060047582002290DE
:20093600E678E0FB7A0043038090E678EBF0E030E21090000AC006C005121317D005D00651
:2009560080D3E52C25E0FB90E679F090E678E020E006903C00E060F3903C00E06004758264
:20097600002290E678E020E2AC90E678E020E14090E678E0FB43034090E678EBF090E678AE
:20099600E030E606903C00E060F3903C00E0600475820022E52D14FB8B2D7003F5822290A8
:2009B600000AC006C005121317D005D00602092B7A007B00C3EA9DEB9E4003020A60C3EA4B
:2009D6009522EB95235016EA2524F8EB3525F9AC26888289838CF0121480FC801DEAC395F3
:2009F60022F8EB9523F9E82529F8E9352AF9AF2B888289838FF0121480FC90E679ECF00AD6
:200A1600BA00010B90E678E020E006903C00E060F3903C00E060047582002290E678E03000
:200A3600E20302092B90E678E020E18890E678E0FF43074090E678EFF090E678E030E60620
:200A5600903C00E060F37582002290E678E0FF43074090E678EFF090E678E030E606903C8E
:200A760000E060F3903C00E060047582002275820122858233903C00E4F004B52E0814B558
:200A96002F0474018001E4FE903C00E06004758200227C007D0090E678E0FB43038090E60E
:200AB60078EBF0E030E20C90000AC006121317D00680D5E53325E0FB3395E0FA4303019077
:200AD600E679EBF090E678E020E006903C00E060F3903C00E060047582002290E678E020DC
:200AF600E2A690E678E020E11E90E678E0FB43034090E678EBF090E678E030E606903C009D
:200B1600E060F375820022EE600F90E678E0FB7A0043032090E678EBF090E679E0E4F534C8
:200B3600F53574012534F8E43535F9C3E8952EE9952F506C90E678E020E006903C00E060B1
:200B5600F3903C00E060047582002290E678E030E203020A9E74022534F8E43535F9E8B52B
:200B76002E13E9B52F0F90E678E0F8790043002090E678E8F0A834A9350534E4B534020513
:200B960035AC34AD35E82530F8E93531F9AF3290E679E0FB888289838FF01211FC020B3827
:200BB60090E678E020E006903C00E060F3903C00E060047582002290E678E030E203020A34
:200BD6009E90E678E0FF43074090E678EFF0EC2530FCED3531FDAF3290E679E08C828D83E2
:200BF6008FF01211FC90E678E030E606903C00E060F3903C00E06004758200227582012215
:200C160085823DE4F541F542AB36AC37C3E5419538E54295394003020CA77A0090E678E07A
:200C360030E4067A018C078F3EEA04FFEA243EF98B02A702EF04FAEF243EF9AE41AF420525
:200C560041E4B541020542EE253AFEEF353BFFAD3C8E828F838DF0121480F78A2275230008
:200C760075243E752500752640E4F527F528F529F52AF52B853D82C004C003120916E58235
:200C9600D003D0047003F582220BBB00010C020C2275820122AF827E0090E678E030E406D7
:200CB6007E01AD448D4AEE04FDEE244AF9AE43A7068D2275230075244A752500752640E472
:200CD600F527F528F529F52AF52B8F82C007120916E582D0077003F5822285452E85462F23
:190CF6008547308548318549328F82120A88E5827003F5822275820122A9
:200D0F00FB7A20E4FCFDFEFFE5822582F582E58333F583E5F033F5F0EB33FB4017DAE9801D
:200D2F0042E5822582F582E58333F583E5F033F5F0EB33FBEC33FCED33FDEE33FEEF33FF4C
:200D4F00EC9518ED9519EE951AEF951B4013EC9518FCED9519FDEE951AFEEF951BFF438296
:050D6F0001DABEEB22D9
:0600F500E478FFF6D8FDDF
:200D7400FCABF0AA83A982749EF582C2D1EC30E716D2D1E9F42401F9EAF43400FAEBF4347E
:0D0D940000FBECF43400FC12154E02136D50
:200DA1001211EAC3749E95824039790012150B30D126E9F42401F582EAF43400F583EBF40C
:200DC1003400F5F0ECF43400700AE582458345F0700122E430E70F22EC20E71489828A8329
:1B0DE1008BF02230D10AE4F582F583F5F074802274FFF582F583F5F0747F2225
:12013B007512007513007514A675153D75161C75173D3D
:200DFC0090E6B9E0FF24F45003020EFCEF240A83F582EF241083F583E4732E43FC58FCFC09
:200E1C006DFC7D94ABDE0E0E0E0E0E0E0E0E0E0E0E0E120F6FE5826003020F1190E6A0E099
:200E3C0043E001F0020F11120FFBE5826003020F1190E6A0E043E001F0020F1112106AE5BB
:200E5C00826003020F1190E6A0E043E001F0020F111206C1E5826003020F11121119020F31
:200E7C00111205B4AF8290E740EFF090E68AE4F090E68B04F0020F1190E6BAE0F58212052A
:200E9C00B8E582707090E6A0E043E001F0806690E6BCE0FF751811751900751A408F821218
:200EBC000591E582700A90E6A0E043E001F0804590E740E511F090E68AE4F090E68B04F06A
:200EDC00803390E6BCE0FF90E6BAE0F5108F821205A6E582701F90E6A0E043E001F08015BA
:200EFC0090E6B9E0F5821206C5E582700890E6A0E043E001F090E6A0E043E080F022AF82AE
:200F1C00747F5FFE24F74047EE240A83F582EE240D83F583E47344485B6B5F6B636B670FDC
:200F3C000F0F0F0F0F0F0F0F90E6A022EF30E7067EA27FE680047EA17FE68E828F83229078
:200F5C00E6A32290E6A42290E6A52290E6A6229000002290E6B8E0FFBF8002801FBF810232
:200F7C008005BF8272803490E740E4F090E741F090E68AF090E68B7402F0805FE51325E003
:200F9C00FFE512420790E740EFF090E741E4F090E68AF090E68B7402F0804090E6BCE0F5B6
:200FBC0082120F1AAE82AF838E048F05EE4F7003F582228C828D83E030E0047F0180027FF4
:200FDC000090E740EFF090E741E4F090E68AF090E68B7402F0800475820022758201229035
:200FFC00E6B8E0FF6005BF0258801B90E6BAE0FFBF0105751300805290E6BAE0FFBF06023B
:20101C0080487582002290E6BAE0703190E6BCE0F582120F1AAE82AF83E0FD5305FE8E82B9
:20103C008F83EDF090E6BCE0FF30E70343071053071F90E683EFF074204FF0800D75820078
:20105C002290E6B9E0F5820206C57582012290E6B8E0FF6005BF026D802590E6BAE0FFBFD2
:20107C000202806A90E6BAE0FFBF0105751301805D90E6BAE0FFBF060280537582002290DA
:20109C00E6BAE0703C90E6BCE0F582120F1AAE82AF83EE4F7003F582228E828F83E0FD4357
:2010BC0005018E828F83EDF090E6BCE0FF30E70343071053071F90E683EFF074204FF080E6
:2010DC000D7582002290E6B9E0F5820206C575820122AF82D20210AF02C202EF600E7514F1
:2010FC001C75153D7516A675173D800C7514A675153D75161C75173DA20292AF2290E6BBCD
:20111C00E0FFBF01028019BF02028024BF0302802CBF06030211C4BF07030211D40211E15F
:20113C007E007F3D90E6B3EFF090E6B47400F02290E6B3E515F090E6B4E514F0227DE07E7E
:20115C003D7F8090E6BAE0FC7B00ECB50302803C0B8D008E018F02888289838AF012148060
:20117C002DFDE43EFE74012DF8E43EF98F02888289838AF0121480F8B8030280067D007E57
:20119C00007F00ED4E6005C3EC9B50BEED4E600F8D038E0490E6B3ECF090E6B4EDF0229032
:2011BC00E6A0E043E001F0227E127F3D90E6B3EFF090E6B47412F02290E6B3E517F090E6D6
:0E11DC00B4E516F02290E6A0E043E001F02218
:2000D3007900E94400601B7A00901936780175923CE493F2A308B800020592D9F4DAF27564
:0200F30092FF7A
:20009C00C000A88118C0D0B6001B18B658004015B67F005010C0E0E65407B406005004E6FD
:0A00BC0054F8F6D0E0D0D0D00032A6
:1211EA00AA82AB83A2F73392D1F5826002D2F7ACF0220A
:1B11FC0020F71130F6138883A88220F509F6A8837583002280FEF280F5F022F2
:203F00000201BC00021583000214D80002026E000201D400020221000214D50002130B00E1
:203F200002130D0002130E0002130F00021312000215820002158400021217000212190065
:203F40000214DA0002130B0002149C000214D6000214D7000214D9000214DB0002150A00C5
:203F60000213BC0002130B0002130B0002130B0002130C0002131000021313000213150078
:203F800002131100021314000213160002136C00021288000212B3000212B5000212B7002F
:183FA000021289000212B4000212B60002130A000212180002158100F7
:0112170032A4
:0112180032A3
:0112190032A2
:20121A00AAF0FBE5828518F0A4FCADF0E5838518F0A42DFDE435F0FEE5828519F0A42DFD61
:20123A00E5F03EFEE433FFEA8518F0A42EFEE5F03FFFE5838519F0A42EFEE5F03FFFE582D3
:20125A00851AF0A42EFEE5F03FFFEB8518F0A42FFFEA8519F0A42FFFE583851AF0A42FFFA5
:0E127A00E582851BF0A42F8EF08D838C8222DE
:011288003233
:011289003232
:2000FB007800E84400600A790075923CE4F309D8FC7801E84400600C7901903C00E4F0A399
:04011B00D8FCD9FA39
:20128A007A10E4FBFCE58225E0F582E58333F583EB33FBEC33FCEB9518F5F0EC9519400658
:0912AA00FCABF0438201DADD2205
:0112B3003208
:0112B4003207
:0112B5003206
:0112B6003205
:0112B7003204
:2012B800FBC2D530E715D2D5E4C39582F582E49583F583E495F0F5F0E49BFBE51B30E71712
:2012D800B2D5E4C39518F518E49519F519E4951AF51AE4951BF51BEB120D0F30D513FBE418
:1212F800C39582F582E49583F583E495F0F5F0E49B2230
:01130A0032B0
:01130B0032AF
:01130C0032AE
:01130D0032AD
:01130E0032AC
:01130F0032AB
:0113100032AA
:0113110032A9
:0113120032A8
:0113130032A7
:0113140032A6
:0113150032A5
:0113160032A4
:20131700AE82AF8390E600E05418C423541F70057CB1FD801C90E600E05418C423541FFBE6
:20133700BB01067A617B0180047AC27B028A048B058C188D19151874FFB518021519E5183E
:15135700451970F1EE24FFFAEF34FFFB8A068B07EA4B70DD22D4
:01136C00324E
:20136D00B98003EA13B34010EA2401FAE43BFBE43CFC50047C800582BC000EBB000BBA00C4
:20138D0008E4F5F0F583F58222A2D1E582138CF092F78B838A8222E4F583F58275F080F484
:0F13AD00A2D11322E4F583F58275F0C0747F227C
:0113BC0032FE
:2013BD001214DC30D502B2D1BF0009BC00030213B10213A4BC000302138EE583B4FF0BE511
:2013DD0082B4FF030213B102138EE582B4FF030213A4C395835007247F400B02138E248012
:2013FD001450030213A4F582C3ED9AEE9BEF9C40111582C3EA33F9EB33FAEC33FBE433FCD5
:20141D008005E4CCCBCAF9C08275F019C3E99DEA9EEB9FEC9400D5F002802D400EE99DF910
:20143D00EA9EFAEB9FFBEC9400FCC3B3E833F8E58233F582E58333F583C3E933F9EA33FA70
:20145D00EB33FBEC33FC80C4B3E4F938FAE43582FBE43583FCD082500405827C8012154E69
:03147D00021385D2
:0D00C60075814B121585E5826003020099DB
:1C14800020F71430F6148883A88220F507E6A88375830022E280F7E49322E0227B
:01149C00321D
:20149D00C2D5E58330E70DD2D5E4C39582F582E49583F583E51930E70DB2D5E4C39518F5CA
:1814BD0018E49519F51912128A30D50BE4C39582F582E49583F58322D6
:0114D50032E4
:0114D60032E3
:0114D70032E2
:0114D80032E1
:0114D90032E0
:0114DA0032DF
:0114DB0032DE
:2014DC00AA82AB83A2F73392D1F5826002D2F7ACF0E58124F9F8E6FD08E6FE0886F008E673
:0E14FC00A2F73392D5F5836002D2F7AFF0224B
:01150A0032AE
:20150B006040F82582500274FFF582E824F8501ECCCBCAF9E4CC24F85014CBCAF9E4CB24E8
:20152B00F8500BCAF9E4CA24F8500379002224086010F8C3EC13FCEB13FBEA13FAE913F99B
:03154B00D8F122B2
:20154E007804EC7011E58224F8500AF582E4C9CACBFCD8EF22EC7820058220E713D582019C
:13156E0022C3E933F9EA33FAEB33FBEC33FCD8EA158222AA
:011581003237
:011582003236
:011583003235
:011584003234
:041585007582002249
:00000001FF
